{
  "contractName": "Cryptown",
  "abi": [
    {
      "constant": true,
      "inputs": [],
      "name": "owner",
      "outputs": [
        {
          "name": "",
          "type": "address"
        }
      ],
      "payable": false,
      "stateMutability": "view",
      "type": "function"
    },
    {
      "constant": false,
      "inputs": [
        {
          "name": "_newOwner",
          "type": "address"
        }
      ],
      "name": "changeOwner",
      "outputs": [],
      "payable": false,
      "stateMutability": "nonpayable",
      "type": "function"
    },
    {
      "constant": false,
      "inputs": [
        {
          "name": "_name",
          "type": "string"
        },
        {
          "name": "_url",
          "type": "string"
        },
        {
          "name": "_logoUrl",
          "type": "string"
        },
        {
          "name": "_schedule",
          "type": "string"
        }
      ],
      "name": "registerCompanyInformation",
      "outputs": [],
      "payable": false,
      "stateMutability": "nonpayable",
      "type": "function"
    },
    {
      "constant": false,
      "inputs": [
        {
          "name": "_name",
          "type": "string"
        },
        {
          "name": "_url",
          "type": "string"
        },
        {
          "name": "_logoUrl",
          "type": "string"
        },
        {
          "name": "_schedule",
          "type": "string"
        }
      ],
      "name": "modifyCompanyInformation",
      "outputs": [],
      "payable": false,
      "stateMutability": "nonpayable",
      "type": "function"
    },
    {
      "constant": true,
      "inputs": [
        {
          "name": "_companyId",
          "type": "address"
        }
      ],
      "name": "getCompanyInformation",
      "outputs": [
        {
          "name": "",
          "type": "string"
        },
        {
          "name": "",
          "type": "string"
        },
        {
          "name": "",
          "type": "string"
        },
        {
          "name": "",
          "type": "string"
        },
        {
          "name": "",
          "type": "uint32[]"
        }
      ],
      "payable": false,
      "stateMutability": "view",
      "type": "function"
    },
    {
      "constant": false,
      "inputs": [
        {
          "name": "_parcelId",
          "type": "uint32"
        }
      ],
      "name": "purchaseParcel",
      "outputs": [],
      "payable": false,
      "stateMutability": "nonpayable",
      "type": "function"
    },
    {
      "constant": false,
      "inputs": [
        {
          "name": "_parcelId",
          "type": "uint32"
        },
        {
          "name": "_customerAddress",
          "type": "address"
        }
      ],
      "name": "sellParcel",
      "outputs": [],
      "payable": false,
      "stateMutability": "nonpayable",
      "type": "function"
    }
  ],
  "bytecode": "0x6060604052336000806101000a81548173ffffffffffffffffffffffffffffffffffffffff021916908373ffffffffffffffffffffffffffffffffffffffff160217905550341561004f57600080fd5b61183c8061005e6000396000f300606060405260043610610083576000357c0100000000000000000000000000000000000000000000000000000000900463ffffffff1680632ba37cf21461008857806358703951146100b15780638ae86bae1461011b5780638da5cb5b146101635780638fc83de4146101b857806390f86bf614610222578063a6f9dae114610460575b600080fd5b341561009357600080fd5b6100af600480803563ffffffff16906020019091905050610499565b005b34156100bc57600080fd5b61011960048080359060200190820180359060200191909192908035906020019082018035906020019190919290803590602001908201803590602001919091929080359060200190820180359060200191909192905050610646565b005b341561012657600080fd5b610161600480803563ffffffff1690602001909190803573ffffffffffffffffffffffffffffffffffffffff1690602001909190505061073f565b005b341561016e57600080fd5b610176610cfc565b604051808273ffffffffffffffffffffffffffffffffffffffff1673ffffffffffffffffffffffffffffffffffffffff16815260200191505060405180910390f35b34156101c357600080fd5b61022060048080359060200190820180359060200191909192908035906020019082018035906020019190919290803590602001908201803590602001919091929080359060200190820180359060200191909192905050610d21565b005b341561022d57600080fd5b610259600480803573ffffffffffffffffffffffffffffffffffffffff16906020019091905050610f9e565b60405180806020018060200180602001806020018060200186810386528b818151815260200191508051906020019080838360005b838110156102a957808201518184015260208101905061028e565b50505050905090810190601f1680156102d65780820380516001836020036101000a031916815260200191505b5086810385528a818151815260200191508051906020019080838360005b8381101561030f5780820151818401526020810190506102f4565b50505050905090810190601f16801561033c5780820380516001836020036101000a031916815260200191505b50868103845289818151815260200191508051906020019080838360005b8381101561037557808201518184015260208101905061035a565b50505050905090810190601f1680156103a25780820380516001836020036101000a031916815260200191505b50868103835288818151815260200191508051906020019080838360005b838110156103db5780820151818401526020810190506103c0565b50505050905090810190601f1680156104085780820380516001836020036101000a031916815260200191505b50868103825287818151815260200191508051906020019060200280838360005b83811015610444578082015181840152602081019050610429565b505050509050019a505050505050505050505060405180910390f35b341561046b57600080fd5b610497600480803573ffffffffffffffffffffffffffffffffffffffff169060200190919050506113d9565b005b600260003373ffffffffffffffffffffffffffffffffffffffff1673ffffffffffffffffffffffffffffffffffffffff16815260200190815260200160002060050160009054906101000a900460ff1615156104f457600080fd5b6000600160008363ffffffff1663ffffffff16815260200190815260200160002060009054906101000a900473ffffffffffffffffffffffffffffffffffffffff1673ffffffffffffffffffffffffffffffffffffffff1614151561055857600080fd5b33600160008363ffffffff1663ffffffff16815260200190815260200160002060006101000a81548173ffffffffffffffffffffffffffffffffffffffff021916908373ffffffffffffffffffffffffffffffffffffffff160217905550600260003373ffffffffffffffffffffffffffffffffffffffff1673ffffffffffffffffffffffffffffffffffffffff168152602001908152602001600020600401805480600101828161060a9190611527565b916000526020600020906008918282040191900660040283909190916101000a81548163ffffffff021916908363ffffffff1602179055505050565b6000600260003373ffffffffffffffffffffffffffffffffffffffff1673ffffffffffffffffffffffffffffffffffffffff16815260200190815260200160002060050160009054906101000a900460ff1615156106a357600080fd5b600260003373ffffffffffffffffffffffffffffffffffffffff1673ffffffffffffffffffffffffffffffffffffffff168152602001908152602001600020905088888260000191906106f7929190611561565b50868682600101919061070b929190611561565b50848482600201919061071f929190611561565b508282826003019190610733929190611561565b50505050505050505050565b60003373ffffffffffffffffffffffffffffffffffffffff16600160008563ffffffff1663ffffffff16815260200190815260200160002060009054906101000a900473ffffffffffffffffffffffffffffffffffffffff1673ffffffffffffffffffffffffffffffffffffffff161415156107ba57600080fd5b600260008373ffffffffffffffffffffffffffffffffffffffff1673ffffffffffffffffffffffffffffffffffffffff16815260200190815260200160002060050160009054906101000a900460ff16151561081557600080fd5b610b90600260008473ffffffffffffffffffffffffffffffffffffffff1673ffffffffffffffffffffffffffffffffffffffff16815260200190815260200160002060c06040519081016040529081600082018054600181600116156101000203166002900480601f0160208091040260200160405190810160405280929190818152602001828054600181600116156101000203166002900480156108fc5780601f106108d1576101008083540402835291602001916108fc565b820191906000526020600020905b8154815290600101906020018083116108df57829003601f168201915b50505050508152602001600182018054600181600116156101000203166002900480601f01602080910402602001604051908101604052809291908181526020018280546001816001161561010002031660029004801561099e5780601f106109735761010080835404028352916020019161099e565b820191906000526020600020905b81548152906001019060200180831161098157829003601f168201915b50505050508152602001600282018054600181600116156101000203166002900480601f016020809104026020016040519081016040528092919081815260200182805460018160011615610100020316600290048015610a405780601f10610a1557610100808354040283529160200191610a40565b820191906000526020600020905b815481529060010190602001808311610a2357829003601f168201915b50505050508152602001600382018054600181600116156101000203166002900480601f016020809104026020016040519081016040528092919081815260200182805460018160011615610100020316600290048015610ae25780601f10610ab757610100808354040283529160200191610ae2565b820191906000526020600020905b815481529060010190602001808311610ac557829003601f168201915b5050505050815260200160048201805480602002602001604051908101604052809291908181526020018280548015610b6657602002820191906000526020600020906000905b82829054906101000a900463ffffffff1663ffffffff1681526020019060040190602082600301049283019260010382029150808411610b295790505b505050505081526020016005820160009054906101000a900460ff1615151515815250508461149d565b9050600260008373ffffffffffffffffffffffffffffffffffffffff1673ffffffffffffffffffffffffffffffffffffffff1681526020019081526020016000206004018160ff16815481101515610be457fe5b90600052602060002090600891828204019190066004026101000a81549063ffffffff021916905581600160008563ffffffff1663ffffffff16815260200190815260200160002060006101000a81548173ffffffffffffffffffffffffffffffffffffffff021916908373ffffffffffffffffffffffffffffffffffffffff160217905550600260008373ffffffffffffffffffffffffffffffffffffffff1673ffffffffffffffffffffffffffffffffffffffff1681526020019081526020016000206004018054806001018281610cbe9190611527565b916000526020600020906008918282040191900660040285909190916101000a81548163ffffffff021916908363ffffffff16021790555050505050565b6000809054906101000a900473ffffffffffffffffffffffffffffffffffffffff1681565b610d296115e1565b600260003373ffffffffffffffffffffffffffffffffffffffff1673ffffffffffffffffffffffffffffffffffffffff16815260200190815260200160002060050160009054906101000a900460ff16151515610d8557600080fd5b60c0604051908101604052808a8a8080601f016020809104026020016040519081016040528093929190818152602001838380828437820191505050505050815260200188888080601f016020809104026020016040519081016040528093929190818152602001838380828437820191505050505050815260200186868080601f016020809104026020016040519081016040528093929190818152602001838380828437820191505050505050815260200184848080601f01602080910402602001604051908101604052809392919081815260200183838082843782019150505050505081526020016000604051805910610e805750595b9080825280602002602001820160405250815260200160011515815250905080600260003373ffffffffffffffffffffffffffffffffffffffff1673ffffffffffffffffffffffffffffffffffffffff1681526020019081526020016000206000820151816000019080519060200190610efb929190611638565b506020820151816001019080519060200190610f18929190611638565b506040820151816002019080519060200190610f35929190611638565b506060820151816003019080519060200190610f52929190611638565b506080820151816004019080519060200190610f6f9291906116b8565b5060a08201518160050160006101000a81548160ff021916908315150217905550905050505050505050505050565b610fa6611768565b610fae611768565b610fb6611768565b610fbe611768565b610fc661177c565b610fce6115e1565b600260008873ffffffffffffffffffffffffffffffffffffffff1673ffffffffffffffffffffffffffffffffffffffff16815260200190815260200160002060050160009054906101000a900460ff16151561102957600080fd5b600260008873ffffffffffffffffffffffffffffffffffffffff1673ffffffffffffffffffffffffffffffffffffffff16815260200190815260200160002060c06040519081016040529081600082018054600181600116156101000203166002900480601f01602080910402602001604051908101604052809291908181526020018280546001816001161561010002031660029004801561110d5780601f106110e25761010080835404028352916020019161110d565b820191906000526020600020905b8154815290600101906020018083116110f057829003601f168201915b50505050508152602001600182018054600181600116156101000203166002900480601f0160208091040260200160405190810160405280929190818152602001828054600181600116156101000203166002900480156111af5780601f10611184576101008083540402835291602001916111af565b820191906000526020600020905b81548152906001019060200180831161119257829003601f168201915b50505050508152602001600282018054600181600116156101000203166002900480601f0160208091040260200160405190810160405280929190818152602001828054600181600116156101000203166002900480156112515780601f1061122657610100808354040283529160200191611251565b820191906000526020600020905b81548152906001019060200180831161123457829003601f168201915b50505050508152602001600382018054600181600116156101000203166002900480601f0160208091040260200160405190810160405280929190818152602001828054600181600116156101000203166002900480156112f35780601f106112c8576101008083540402835291602001916112f3565b820191906000526020600020905b8154815290600101906020018083116112d657829003601f168201915b505050505081526020016004820180548060200260200160405190810160405280929190818152602001828054801561137757602002820191906000526020600020906000905b82829054906101000a900463ffffffff1663ffffffff168152602001906004019060208260030104928301926001038202915080841161133a5790505b505050505081526020016005820160009054906101000a900460ff161515151581525050905080600001518160200151826040015183606001518460800151849450839350829250819150809050955095509550955095505091939590929450565b6000809054906101000a900473ffffffffffffffffffffffffffffffffffffffff1673ffffffffffffffffffffffffffffffffffffffff163373ffffffffffffffffffffffffffffffffffffffff1614151561143457600080fd5b60008173ffffffffffffffffffffffffffffffffffffffff161415151561145a57600080fd5b806000806101000a81548173ffffffffffffffffffffffffffffffffffffffff021916908373ffffffffffffffffffffffffffffffffffffffff16021790555050565b600080600090505b8360800151518160ff1610156114fc578263ffffffff1684608001518260ff168151811015156114d157fe5b9060200190602002015163ffffffff1614156114ef57809150611520565b80806001019150506114a5565b7fffffffffffffffffffffffffffffffffffffffffffffffffffffffffffffffff91505b5092915050565b81548183558181151161155c57600701600890048160070160089004836000526020600020918201910161155b9190611790565b5b505050565b828054600181600116156101000203166002900490600052602060002090601f016020900481019282601f106115a257803560ff19168380011785556115d0565b828001600101855582156115d0579182015b828111156115cf5782358255916020019190600101906115b4565b5b5090506115dd9190611790565b5090565b60c0604051908101604052806115f56117b5565b81526020016116026117b5565b815260200161160f6117b5565b815260200161161c6117b5565b81526020016116296117c9565b81526020016000151581525090565b828054600181600116156101000203166002900490600052602060002090601f016020900481019282601f1061167957805160ff19168380011785556116a7565b828001600101855582156116a7579182015b828111156116a657825182559160200191906001019061168b565b5b5090506116b49190611790565b5090565b828054828255906000526020600020906007016008900481019282156117575791602002820160005b8382111561172557835183826101000a81548163ffffffff021916908363ffffffff16021790555092602001926004016020816003010492830192600103026116e1565b80156117555782816101000a81549063ffffffff0219169055600401602081600301049283019260010302611725565b505b50905061176491906117dd565b5090565b602060405190810160405280600081525090565b602060405190810160405280600081525090565b6117b291905b808211156117ae576000816000905550600101611796565b5090565b90565b602060405190810160405280600081525090565b602060405190810160405280600081525090565b61180d91905b8082111561180957600081816101000a81549063ffffffff0219169055506001016117e3565b5090565b905600a165627a7a72305820f190379533713d9a21ac8afc770b4f0f9ed64ad8e2950d86b4edcaef4c9446160029",
  "source": "pragma solidity ^0.4.11;\r\n\r\nimport \"./Ownable.sol\";\r\n\r\ncontract Cryptown is Ownable {\r\n    \r\n    // Company information\r\n    struct CompanyInfo {\r\n        string name;\r\n        string url;\r\n        string logoUrl;\r\n        string schedule;\r\n        uint32[] parcels;\r\n        bool initialized;\r\n    }\r\n    \r\n    \r\n    // Each parcel has an owner\r\n    mapping(uint32 => address) parcelToOwner;\r\n    // Each owner has a company information\r\n    mapping(address => CompanyInfo) ownerToCompany;\r\n    \r\n    \r\n    // Check if company is initialized (not used yet)\r\n    modifier companyInitial (address _companyId) {\r\n        require(ownerToCompany[_companyId].initialized);\r\n        _;\r\n    }\r\n    \r\n    \r\n    // Register a new company by its address\r\n    function registerCompanyInformation(string _name, string _url, string _logoUrl, string _schedule) external {\r\n        // Check address not exists\r\n        require(!ownerToCompany[msg.sender].initialized);\r\n        CompanyInfo memory info = CompanyInfo(_name, _url, _logoUrl, _schedule, new uint32[](0), true);\r\n        ownerToCompany[msg.sender] = info;\r\n    }\r\n    \r\n    \r\n    // Modify Company information. Only owner is able to modify it\r\n    function modifyCompanyInformation(string _name, string _url, string _logoUrl, string _schedule) external {\r\n        require(ownerToCompany[msg.sender].initialized);\r\n        CompanyInfo storage companyInfo = ownerToCompany[msg.sender];\r\n        companyInfo.name = _name;\r\n        companyInfo.url = _url;\r\n        companyInfo.logoUrl = _logoUrl;\r\n        companyInfo.schedule = _schedule;\r\n    }\r\n    \r\n    \r\n    // Obtain the information about company. No gas required (only view)\r\n    function getCompanyInformation(address _companyId) external view returns(string, string, string, string, uint32[]) {\r\n        require(ownerToCompany[_companyId].initialized);\r\n        CompanyInfo memory info = ownerToCompany[_companyId];\r\n        return (info.name, info.url,  info.logoUrl, info.schedule, info.parcels);\r\n    }\r\n    \r\n    \r\n    // An address purchases the empty parcel\r\n    // TODO: include payment to contract owner address\r\n    function purchaseParcel(uint32 _parcelId) external {\r\n        require(ownerToCompany[msg.sender].initialized); // Company exists\r\n        require(parcelToOwner[_parcelId] == 0); // Parcel must not be asigned to be purchase\r\n        parcelToOwner[_parcelId] = msg.sender; // Assign parcel to sender address\r\n        ownerToCompany[msg.sender].parcels.push(_parcelId);\r\n    } \r\n    \r\n    \r\n    // Obtain the parcel index on array of parcels\r\n    function indexOfParcel(CompanyInfo _companyInfo, uint32 _parcelId) internal pure returns(uint8) {\r\n        for(uint8 i = 0; i < _companyInfo.parcels.length; i++) {\r\n            if(_companyInfo.parcels[i] == _parcelId) {\r\n                return i;\r\n            }\r\n        }\r\n        return uint8(-1);\r\n    }\r\n    \r\n    \r\n    // Transfers a parcel from owner to another customer\r\n    // TODO: modify this to include an ammount to transfer. \r\n    function sellParcel(uint32 _parcelId, address _customerAddress) external {\r\n        require(parcelToOwner[_parcelId] == msg.sender); // Parcel must currently owns to sender\r\n        require(ownerToCompany[_customerAddress].initialized); // Another address must be registered as company to sell the parcel\r\n        // Remove from current owner\r\n        uint8 parcelIndex = indexOfParcel(ownerToCompany[_customerAddress], _parcelId);\r\n        delete ownerToCompany[_customerAddress].parcels[parcelIndex];\r\n        // Reasign to new customer\r\n        parcelToOwner[_parcelId] = _customerAddress;\r\n        ownerToCompany[_customerAddress].parcels.push(_parcelId);\r\n    }\r\n    \r\n}\r\n",
  "sourcePath": "C:\\Users\\Miguel\\Desktop\\Proyectos\\Cryptown\\contracts\\Cryptown.sol",
  "compiler": {
    "name": "solc",
    "version": "0.4.19+commit.c4cbbb05.Emscripten.clang"
  },
  "schemaVersion": "1.0.1",
  "updatedAt": "2018-03-20T21:20:01.821Z"
}